{
  "_format": "hh-sol-artifact-1",
  "contractName": "FairGame",
  "sourceName": "contracts/FairGame.sol",
  "abi": [
    {
      "inputs": [],
      "stateMutability": "payable",
      "type": "constructor"
    },
    {
      "inputs": [
        {
          "internalType": "uint256",
          "name": "amount",
          "type": "uint256"
        }
      ],
      "name": "bet",
      "outputs": [],
      "stateMutability": "nonpayable",
      "type": "function"
    },
    {
      "inputs": [],
      "name": "deposit",
      "outputs": [],
      "stateMutability": "payable",
      "type": "function"
    },
    {
      "inputs": [],
      "name": "owner",
      "outputs": [
        {
          "internalType": "address payable",
          "name": "",
          "type": "address"
        }
      ],
      "stateMutability": "view",
      "type": "function"
    },
    {
      "inputs": [
        {
          "internalType": "address",
          "name": "",
          "type": "address"
        }
      ],
      "name": "users",
      "outputs": [
        {
          "internalType": "uint256",
          "name": "",
          "type": "uint256"
        }
      ],
      "stateMutability": "view",
      "type": "function"
    },
    {
      "inputs": [],
      "name": "withdrawAll",
      "outputs": [],
      "stateMutability": "nonpayable",
      "type": "function"
    },
    {
      "inputs": [
        {
          "internalType": "uint256",
          "name": "amount",
          "type": "uint256"
        }
      ],
      "name": "withdrawal",
      "outputs": [],
      "stateMutability": "nonpayable",
      "type": "function"
    }
  ],
  "bytecode": "0x6080604052336000806101000a81548173ffffffffffffffffffffffffffffffffffffffff021916908373ffffffffffffffffffffffffffffffffffffffff1602179055506064444261005291906100a0565b61005c9190610103565b600181905550610134565b6000819050919050565b7f4e487b7100000000000000000000000000000000000000000000000000000000600052601160045260246000fd5b60006100ab82610067565b91506100b683610067565b92508282019050808211156100ce576100cd610071565b5b92915050565b7f4e487b7100000000000000000000000000000000000000000000000000000000600052601260045260246000fd5b600061010e82610067565b915061011983610067565b925082610129576101286100d4565b5b828206905092915050565b610a7b806101436000396000f3fe6080604052600436106100555760003560e01c80637365870b1461005a578063835fc6ca14610083578063853828b6146100ac5780638da5cb5b146100c3578063a87430ba146100ee578063d0e30db01461012b575b600080fd5b34801561006657600080fd5b50610081600480360381019061007c91906105dd565b610135565b005b34801561008f57600080fd5b506100aa60048036038101906100a591906105dd565b6102a1565b005b3480156100b857600080fd5b506100c1610429565b005b3480156100cf57600080fd5b506100d8610520565b6040516100e5919061064b565b60405180910390f35b3480156100fa57600080fd5b50610115600480360381019061011091906106a4565b610544565b60405161012291906106e0565b60405180910390f35b61013361055c565b005b600260003373ffffffffffffffffffffffffffffffffffffffff1673ffffffffffffffffffffffffffffffffffffffff1681526020019081526020016000205481106101b6576040517f08c379a00000000000000000000000000000000000000000000000000000000081526004016101ad90610758565b60405180910390fd5b606460015442446101c791906107a7565b6101d191906107a7565b6101db919061080a565b600181905550603260015411156102475780600260003373ffffffffffffffffffffffffffffffffffffffff1673ffffffffffffffffffffffffffffffffffffffff168152602001908152602001600020600082825461023b91906107a7565b9250508190555061029e565b80600260003373ffffffffffffffffffffffffffffffffffffffff1673ffffffffffffffffffffffffffffffffffffffff1681526020019081526020016000206000828254610296919061083b565b925050819055505b50565b600260003373ffffffffffffffffffffffffffffffffffffffff1673ffffffffffffffffffffffffffffffffffffffff16815260200190815260200160002054811115610323576040517f08c379a000000000000000000000000000000000000000000000000000000000815260040161031a906108e1565b60405180910390fd5b80600260003373ffffffffffffffffffffffffffffffffffffffff1673ffffffffffffffffffffffffffffffffffffffff1681526020019081526020016000206000828254610372919061083b565b9250508190555060003373ffffffffffffffffffffffffffffffffffffffff168260405161039f90610932565b60006040518083038185875af1925050503d80600081146103dc576040519150601f19603f3d011682016040523d82523d6000602084013e6103e1565b606091505b5050905080610425576040517f08c379a000000000000000000000000000000000000000000000000000000000815260040161041c906109b9565b60405180910390fd5b5050565b60008054906101000a900473ffffffffffffffffffffffffffffffffffffffff1673ffffffffffffffffffffffffffffffffffffffff163373ffffffffffffffffffffffffffffffffffffffff16146104b7576040517f08c379a00000000000000000000000000000000000000000000000000000000081526004016104ae90610a25565b60405180910390fd5b60008054906101000a900473ffffffffffffffffffffffffffffffffffffffff1673ffffffffffffffffffffffffffffffffffffffff166108fc479081150290604051600060405180830381858888f1935050505015801561051d573d6000803e3d6000fd5b50565b60008054906101000a900473ffffffffffffffffffffffffffffffffffffffff1681565b60026020528060005260406000206000915090505481565b34600260003373ffffffffffffffffffffffffffffffffffffffff1673ffffffffffffffffffffffffffffffffffffffff16815260200190815260200160002081905550565b600080fd5b6000819050919050565b6105ba816105a7565b81146105c557600080fd5b50565b6000813590506105d7816105b1565b92915050565b6000602082840312156105f3576105f26105a2565b5b6000610601848285016105c8565b91505092915050565b600073ffffffffffffffffffffffffffffffffffffffff82169050919050565b60006106358261060a565b9050919050565b6106458161062a565b82525050565b6000602082019050610660600083018461063c565b92915050565b60006106718261060a565b9050919050565b61068181610666565b811461068c57600080fd5b50565b60008135905061069e81610678565b92915050565b6000602082840312156106ba576106b96105a2565b5b60006106c88482850161068f565b91505092915050565b6106da816105a7565b82525050565b60006020820190506106f560008301846106d1565b92915050565b600082825260208201905092915050565b7f506c6561736520656e74657220612076616c69642062657420616d6f756e742e600082015250565b60006107426020836106fb565b915061074d8261070c565b602082019050919050565b6000602082019050818103600083015261077181610735565b9050919050565b7f4e487b7100000000000000000000000000000000000000000000000000000000600052601160045260246000fd5b60006107b2826105a7565b91506107bd836105a7565b92508282019050808211156107d5576107d4610778565b5b92915050565b7f4e487b7100000000000000000000000000000000000000000000000000000000600052601260045260246000fd5b6000610815826105a7565b9150610820836105a7565b9250826108305761082f6107db565b5b828206905092915050565b6000610846826105a7565b9150610851836105a7565b925082820390508181111561086957610868610778565b5b92915050565b7f506c6561736520656e74657220612076616c6964207769746864726177616c2060008201527f616d6f756e742e00000000000000000000000000000000000000000000000000602082015250565b60006108cb6027836106fb565b91506108d68261086f565b604082019050919050565b600060208201905081810360008301526108fa816108be565b9050919050565b600081905092915050565b50565b600061091c600083610901565b91506109278261090c565b600082019050919050565b600061093d8261090f565b9150819050919050565b7f4661696c656420746f207769746864726177206d6f6e65792066726f6d20636f60008201527f6e74726163742e00000000000000000000000000000000000000000000000000602082015250565b60006109a36027836106fb565b91506109ae82610947565b604082019050919050565b600060208201905081810360008301526109d281610996565b9050919050565b7f596f75206172656e277420746865206f776e6572000000000000000000000000600082015250565b6000610a0f6014836106fb565b9150610a1a826109d9565b602082019050919050565b60006020820190508181036000830152610a3e81610a02565b905091905056fea26469706673582212208c03268e57826e2cb1115ab5bf41cc3e93caa7cec80c2906f8b760da28bf0e7e64736f6c63430008110033",
  "linkReferences": {},
  "deployedLinkReferences": {}
}