{
  "_format": "hh-sol-artifact-1",
  "contractName": "FairGame",
  "sourceName": "contracts/FairGame.sol",
  "abi": [
    {
      "inputs": [],
      "stateMutability": "payable",
      "type": "constructor"
    },
    {
      "inputs": [
        {
          "internalType": "uint256",
          "name": "amount",
          "type": "uint256"
        }
      ],
      "name": "bet",
      "outputs": [],
      "stateMutability": "nonpayable",
      "type": "function"
    },
    {
      "inputs": [],
      "name": "deposit",
      "outputs": [],
      "stateMutability": "payable",
      "type": "function"
    },
    {
      "inputs": [],
      "name": "owner",
      "outputs": [
        {
          "internalType": "address payable",
          "name": "",
          "type": "address"
        }
      ],
      "stateMutability": "view",
      "type": "function"
    },
    {
      "inputs": [
        {
          "internalType": "address",
          "name": "",
          "type": "address"
        }
      ],
      "name": "users",
      "outputs": [
        {
          "internalType": "uint256",
          "name": "",
          "type": "uint256"
        }
      ],
      "stateMutability": "view",
      "type": "function"
    },
    {
      "inputs": [
        {
          "internalType": "uint256",
          "name": "amount",
          "type": "uint256"
        }
      ],
      "name": "withdraw",
      "outputs": [],
      "stateMutability": "nonpayable",
      "type": "function"
    },
    {
      "inputs": [],
      "name": "withdrawAll",
      "outputs": [],
      "stateMutability": "nonpayable",
      "type": "function"
    }
  ],
  "bytecode": "0x6080604052336000806101000a81548173ffffffffffffffffffffffffffffffffffffffff021916908373ffffffffffffffffffffffffffffffffffffffff1602179055506064444261005291906100a0565b61005c9190610103565b600181905550610134565b6000819050919050565b7f4e487b7100000000000000000000000000000000000000000000000000000000600052601160045260246000fd5b60006100ab82610067565b91506100b683610067565b92508282019050808211156100ce576100cd610071565b5b92915050565b7f4e487b7100000000000000000000000000000000000000000000000000000000600052601260045260246000fd5b600061010e82610067565b915061011983610067565b925082610129576101286100d4565b5b828206905092915050565b610a8d806101436000396000f3fe6080604052600436106100555760003560e01c80632e1a7d4d1461005a5780637365870b14610083578063853828b6146100ac5780638da5cb5b146100c3578063a87430ba146100ee578063d0e30db01461012b575b600080fd5b34801561006657600080fd5b50610081600480360381019061007c91906105ef565b610135565b005b34801561008f57600080fd5b506100aa60048036038101906100a591906105ef565b6102bd565b005b3480156100b857600080fd5b506100c1610429565b005b3480156100cf57600080fd5b506100d8610520565b6040516100e5919061065d565b60405180910390f35b3480156100fa57600080fd5b50610115600480360381019061011091906106b6565b610544565b60405161012291906106f2565b60405180910390f35b61013361055c565b005b600260003373ffffffffffffffffffffffffffffffffffffffff1673ffffffffffffffffffffffffffffffffffffffff168152602001908152602001600020548111156101b7576040517f08c379a00000000000000000000000000000000000000000000000000000000081526004016101ae90610790565b60405180910390fd5b80600260003373ffffffffffffffffffffffffffffffffffffffff1673ffffffffffffffffffffffffffffffffffffffff168152602001908152602001600020600082825461020691906107df565b9250508190555060003373ffffffffffffffffffffffffffffffffffffffff168260405161023390610844565b60006040518083038185875af1925050503d8060008114610270576040519150601f19603f3d011682016040523d82523d6000602084013e610275565b606091505b50509050806102b9576040517f08c379a00000000000000000000000000000000000000000000000000000000081526004016102b0906108cb565b60405180910390fd5b5050565b600260003373ffffffffffffffffffffffffffffffffffffffff1673ffffffffffffffffffffffffffffffffffffffff16815260200190815260200160002054811061033e576040517f08c379a000000000000000000000000000000000000000000000000000000000815260040161033590610937565b60405180910390fd5b6064600154424461034f9190610957565b6103599190610957565b61036391906109ba565b600181905550603260015411156103cf5780600260003373ffffffffffffffffffffffffffffffffffffffff1673ffffffffffffffffffffffffffffffffffffffff16815260200190815260200160002060008282546103c39190610957565b92505081905550610426565b80600260003373ffffffffffffffffffffffffffffffffffffffff1673ffffffffffffffffffffffffffffffffffffffff168152602001908152602001600020600082825461041e91906107df565b925050819055505b50565b60008054906101000a900473ffffffffffffffffffffffffffffffffffffffff1673ffffffffffffffffffffffffffffffffffffffff163373ffffffffffffffffffffffffffffffffffffffff16146104b7576040517f08c379a00000000000000000000000000000000000000000000000000000000081526004016104ae90610a37565b60405180910390fd5b60008054906101000a900473ffffffffffffffffffffffffffffffffffffffff1673ffffffffffffffffffffffffffffffffffffffff166108fc479081150290604051600060405180830381858888f1935050505015801561051d573d6000803e3d6000fd5b50565b60008054906101000a900473ffffffffffffffffffffffffffffffffffffffff1681565b60026020528060005260406000206000915090505481565b34600260003373ffffffffffffffffffffffffffffffffffffffff1673ffffffffffffffffffffffffffffffffffffffff16815260200190815260200160002060008282546105ab9190610957565b92505081905550565b600080fd5b6000819050919050565b6105cc816105b9565b81146105d757600080fd5b50565b6000813590506105e9816105c3565b92915050565b600060208284031215610605576106046105b4565b5b6000610613848285016105da565b91505092915050565b600073ffffffffffffffffffffffffffffffffffffffff82169050919050565b60006106478261061c565b9050919050565b6106578161063c565b82525050565b6000602082019050610672600083018461064e565b92915050565b60006106838261061c565b9050919050565b61069381610678565b811461069e57600080fd5b50565b6000813590506106b08161068a565b92915050565b6000602082840312156106cc576106cb6105b4565b5b60006106da848285016106a1565b91505092915050565b6106ec816105b9565b82525050565b600060208201905061070760008301846106e3565b92915050565b600082825260208201905092915050565b7f506c6561736520656e74657220612076616c696420776974686472617720616d60008201527f6f756e742e000000000000000000000000000000000000000000000000000000602082015250565b600061077a60258361070d565b91506107858261071e565b604082019050919050565b600060208201905081810360008301526107a98161076d565b9050919050565b7f4e487b7100000000000000000000000000000000000000000000000000000000600052601160045260246000fd5b60006107ea826105b9565b91506107f5836105b9565b925082820390508181111561080d5761080c6107b0565b5b92915050565b600081905092915050565b50565b600061082e600083610813565b91506108398261081e565b600082019050919050565b600061084f82610821565b9150819050919050565b7f4661696c656420746f207769746864726177206d6f6e65792066726f6d20636f60008201527f6e74726163742e00000000000000000000000000000000000000000000000000602082015250565b60006108b560278361070d565b91506108c082610859565b604082019050919050565b600060208201905081810360008301526108e4816108a8565b9050919050565b7f506c6561736520656e74657220612076616c69642062657420616d6f756e742e600082015250565b600061092160208361070d565b915061092c826108eb565b602082019050919050565b6000602082019050818103600083015261095081610914565b9050919050565b6000610962826105b9565b915061096d836105b9565b9250828201905080821115610985576109846107b0565b5b92915050565b7f4e487b7100000000000000000000000000000000000000000000000000000000600052601260045260246000fd5b60006109c5826105b9565b91506109d0836105b9565b9250826109e0576109df61098b565b5b828206905092915050565b7f596f75206172656e277420746865206f776e6572000000000000000000000000600082015250565b6000610a2160148361070d565b9150610a2c826109eb565b602082019050919050565b60006020820190508181036000830152610a5081610a14565b905091905056fea2646970667358221220cd1e82928bd88015e2fbc6c52ff7dbddb91a589d3303e81f057cdf9ad2ee091064736f6c63430008110033",
  "linkReferences": {},
  "deployedLinkReferences": {}
}