{
  "_format": "hh-sol-artifact-1",
  "contractName": "FairGame",
  "sourceName": "contracts/FairGame.sol",
  "abi": [
    {
      "inputs": [],
      "stateMutability": "payable",
      "type": "constructor"
    },
    {
      "inputs": [
        {
          "internalType": "uint256",
          "name": "amount",
          "type": "uint256"
        }
      ],
      "name": "bet",
      "outputs": [],
      "stateMutability": "nonpayable",
      "type": "function"
    },
    {
      "inputs": [],
      "name": "deposit",
      "outputs": [],
      "stateMutability": "payable",
      "type": "function"
    },
    {
      "inputs": [],
      "name": "owner",
      "outputs": [
        {
          "internalType": "address payable",
          "name": "",
          "type": "address"
        }
      ],
      "stateMutability": "view",
      "type": "function"
    },
    {
      "inputs": [
        {
          "internalType": "address",
          "name": "",
          "type": "address"
        }
      ],
      "name": "users",
      "outputs": [
        {
          "internalType": "uint256",
          "name": "",
          "type": "uint256"
        }
      ],
      "stateMutability": "view",
      "type": "function"
    },
    {
      "inputs": [
        {
          "internalType": "uint256",
          "name": "amount",
          "type": "uint256"
        }
      ],
      "name": "withdraw",
      "outputs": [],
      "stateMutability": "nonpayable",
      "type": "function"
    },
    {
      "inputs": [],
      "name": "withdrawByOwner",
      "outputs": [],
      "stateMutability": "nonpayable",
      "type": "function"
    }
  ],
  "bytecode": "0x6080604052336000806101000a81548173ffffffffffffffffffffffffffffffffffffffff021916908373ffffffffffffffffffffffffffffffffffffffff1602179055506064444261005291906100a0565b61005c9190610103565b600181905550610134565b6000819050919050565b7f4e487b7100000000000000000000000000000000000000000000000000000000600052601160045260246000fd5b60006100ab82610067565b91506100b683610067565b92508282019050808211156100ce576100cd610071565b5b92915050565b7f4e487b7100000000000000000000000000000000000000000000000000000000600052601260045260246000fd5b600061010e82610067565b915061011983610067565b925082610129576101286100d4565b5b828206905092915050565b6107a8806101436000396000f3fe6080604052600436106100555760003560e01c806305f2327e1461005a5780632e1a7d4d146100715780637365870b1461009a5780638da5cb5b146100c3578063a87430ba146100ee578063d0e30db01461012b575b600080fd5b34801561006657600080fd5b5061006f610135565b005b34801561007d57600080fd5b5061009860048036038101906100939190610517565b6101f6565b005b3480156100a657600080fd5b506100c160048036038101906100bc9190610517565b610312565b005b3480156100cf57600080fd5b506100d8610448565b6040516100e59190610585565b60405180910390f35b3480156100fa57600080fd5b50610115600480360381019061011091906105de565b61046c565b604051610122919061061a565b60405180910390f35b610133610484565b005b60008054906101000a900473ffffffffffffffffffffffffffffffffffffffff1673ffffffffffffffffffffffffffffffffffffffff163373ffffffffffffffffffffffffffffffffffffffff161461018d57600080fd5b60008054906101000a900473ffffffffffffffffffffffffffffffffffffffff1673ffffffffffffffffffffffffffffffffffffffff166108fc479081150290604051600060405180830381858888f193505050501580156101f3573d6000803e3d6000fd5b50565b600260003373ffffffffffffffffffffffffffffffffffffffff1673ffffffffffffffffffffffffffffffffffffffff1681526020019081526020016000205481111561024257600080fd5b80600260003373ffffffffffffffffffffffffffffffffffffffff1673ffffffffffffffffffffffffffffffffffffffff16815260200190815260200160002060008282546102919190610664565b9250508190555060003373ffffffffffffffffffffffffffffffffffffffff16826040516102be906106c9565b60006040518083038185875af1925050503d80600081146102fb576040519150601f19603f3d011682016040523d82523d6000602084013e610300565b606091505b505090508061030e57600080fd5b5050565b600260003373ffffffffffffffffffffffffffffffffffffffff1673ffffffffffffffffffffffffffffffffffffffff16815260200190815260200160002054811061035d57600080fd5b6064600154424461036e91906106de565b61037891906106de565b6103829190610741565b600181905550603260015411156103ee5780600260003373ffffffffffffffffffffffffffffffffffffffff1673ffffffffffffffffffffffffffffffffffffffff16815260200190815260200160002060008282546103e291906106de565b92505081905550610445565b80600260003373ffffffffffffffffffffffffffffffffffffffff1673ffffffffffffffffffffffffffffffffffffffff168152602001908152602001600020600082825461043d9190610664565b925050819055505b50565b60008054906101000a900473ffffffffffffffffffffffffffffffffffffffff1681565b60026020528060005260406000206000915090505481565b34600260003373ffffffffffffffffffffffffffffffffffffffff1673ffffffffffffffffffffffffffffffffffffffff16815260200190815260200160002060008282546104d391906106de565b92505081905550565b600080fd5b6000819050919050565b6104f4816104e1565b81146104ff57600080fd5b50565b600081359050610511816104eb565b92915050565b60006020828403121561052d5761052c6104dc565b5b600061053b84828501610502565b91505092915050565b600073ffffffffffffffffffffffffffffffffffffffff82169050919050565b600061056f82610544565b9050919050565b61057f81610564565b82525050565b600060208201905061059a6000830184610576565b92915050565b60006105ab82610544565b9050919050565b6105bb816105a0565b81146105c657600080fd5b50565b6000813590506105d8816105b2565b92915050565b6000602082840312156105f4576105f36104dc565b5b6000610602848285016105c9565b91505092915050565b610614816104e1565b82525050565b600060208201905061062f600083018461060b565b92915050565b7f4e487b7100000000000000000000000000000000000000000000000000000000600052601160045260246000fd5b600061066f826104e1565b915061067a836104e1565b925082820390508181111561069257610691610635565b5b92915050565b600081905092915050565b50565b60006106b3600083610698565b91506106be826106a3565b600082019050919050565b60006106d4826106a6565b9150819050919050565b60006106e9826104e1565b91506106f4836104e1565b925082820190508082111561070c5761070b610635565b5b92915050565b7f4e487b7100000000000000000000000000000000000000000000000000000000600052601260045260246000fd5b600061074c826104e1565b9150610757836104e1565b92508261076757610766610712565b5b82820690509291505056fea2646970667358221220cd58ad333dea312e0f5a5961cec5800f991c9c122aca7d36a341c0f47f41db5664736f6c63430008110033",
  "linkReferences": {},
  "deployedLinkReferences": {}
}