{
  "_format": "hh-sol-artifact-1",
  "contractName": "FairGame",
  "sourceName": "contracts/FairGame.sol",
  "abi": [
    {
      "inputs": [],
      "stateMutability": "payable",
      "type": "constructor"
    },
    {
      "inputs": [
        {
          "internalType": "uint256",
          "name": "amount",
          "type": "uint256"
        }
      ],
      "name": "bet",
      "outputs": [],
      "stateMutability": "nonpayable",
      "type": "function"
    },
    {
      "inputs": [],
      "name": "deposit",
      "outputs": [],
      "stateMutability": "payable",
      "type": "function"
    },
    {
      "inputs": [],
      "name": "owner",
      "outputs": [
        {
          "internalType": "address payable",
          "name": "",
          "type": "address"
        }
      ],
      "stateMutability": "view",
      "type": "function"
    },
    {
      "inputs": [
        {
          "internalType": "address",
          "name": "",
          "type": "address"
        }
      ],
      "name": "users",
      "outputs": [
        {
          "internalType": "uint256",
          "name": "",
          "type": "uint256"
        }
      ],
      "stateMutability": "view",
      "type": "function"
    },
    {
      "inputs": [],
      "name": "withdrawAll",
      "outputs": [],
      "stateMutability": "nonpayable",
      "type": "function"
    },
    {
      "inputs": [
        {
          "internalType": "uint256",
          "name": "amount",
          "type": "uint256"
        }
      ],
      "name": "withdrawal",
      "outputs": [],
      "stateMutability": "nonpayable",
      "type": "function"
    }
  ],
  "bytecode": "0x6080604052336000806101000a81548173ffffffffffffffffffffffffffffffffffffffff021916908373ffffffffffffffffffffffffffffffffffffffff1602179055506064444261005291906100a0565b61005c9190610103565b600181905550610134565b6000819050919050565b7f4e487b7100000000000000000000000000000000000000000000000000000000600052601160045260246000fd5b60006100ab82610067565b91506100b683610067565b92508282019050808211156100ce576100cd610071565b5b92915050565b7f4e487b7100000000000000000000000000000000000000000000000000000000600052601260045260246000fd5b600061010e82610067565b915061011983610067565b925082610129576101286100d4565b5b828206905092915050565b610a8d806101436000396000f3fe6080604052600436106100555760003560e01c80637365870b1461005a578063835fc6ca14610083578063853828b6146100ac5780638da5cb5b146100c3578063a87430ba146100ee578063d0e30db01461012b575b600080fd5b34801561006657600080fd5b50610081600480360381019061007c91906105ef565b610135565b005b34801561008f57600080fd5b506100aa60048036038101906100a591906105ef565b6102a1565b005b3480156100b857600080fd5b506100c1610429565b005b3480156100cf57600080fd5b506100d8610520565b6040516100e5919061065d565b60405180910390f35b3480156100fa57600080fd5b50610115600480360381019061011091906106b6565b610544565b60405161012291906106f2565b60405180910390f35b61013361055c565b005b600260003373ffffffffffffffffffffffffffffffffffffffff1673ffffffffffffffffffffffffffffffffffffffff1681526020019081526020016000205481106101b6576040517f08c379a00000000000000000000000000000000000000000000000000000000081526004016101ad9061076a565b60405180910390fd5b606460015442446101c791906107b9565b6101d191906107b9565b6101db919061081c565b600181905550603260015411156102475780600260003373ffffffffffffffffffffffffffffffffffffffff1673ffffffffffffffffffffffffffffffffffffffff168152602001908152602001600020600082825461023b91906107b9565b9250508190555061029e565b80600260003373ffffffffffffffffffffffffffffffffffffffff1673ffffffffffffffffffffffffffffffffffffffff1681526020019081526020016000206000828254610296919061084d565b925050819055505b50565b600260003373ffffffffffffffffffffffffffffffffffffffff1673ffffffffffffffffffffffffffffffffffffffff16815260200190815260200160002054811115610323576040517f08c379a000000000000000000000000000000000000000000000000000000000815260040161031a906108f3565b60405180910390fd5b80600260003373ffffffffffffffffffffffffffffffffffffffff1673ffffffffffffffffffffffffffffffffffffffff1681526020019081526020016000206000828254610372919061084d565b9250508190555060003373ffffffffffffffffffffffffffffffffffffffff168260405161039f90610944565b60006040518083038185875af1925050503d80600081146103dc576040519150601f19603f3d011682016040523d82523d6000602084013e6103e1565b606091505b5050905080610425576040517f08c379a000000000000000000000000000000000000000000000000000000000815260040161041c906109cb565b60405180910390fd5b5050565b60008054906101000a900473ffffffffffffffffffffffffffffffffffffffff1673ffffffffffffffffffffffffffffffffffffffff163373ffffffffffffffffffffffffffffffffffffffff16146104b7576040517f08c379a00000000000000000000000000000000000000000000000000000000081526004016104ae90610a37565b60405180910390fd5b60008054906101000a900473ffffffffffffffffffffffffffffffffffffffff1673ffffffffffffffffffffffffffffffffffffffff166108fc479081150290604051600060405180830381858888f1935050505015801561051d573d6000803e3d6000fd5b50565b60008054906101000a900473ffffffffffffffffffffffffffffffffffffffff1681565b60026020528060005260406000206000915090505481565b34600260003373ffffffffffffffffffffffffffffffffffffffff1673ffffffffffffffffffffffffffffffffffffffff16815260200190815260200160002060008282546105ab91906107b9565b92505081905550565b600080fd5b6000819050919050565b6105cc816105b9565b81146105d757600080fd5b50565b6000813590506105e9816105c3565b92915050565b600060208284031215610605576106046105b4565b5b6000610613848285016105da565b91505092915050565b600073ffffffffffffffffffffffffffffffffffffffff82169050919050565b60006106478261061c565b9050919050565b6106578161063c565b82525050565b6000602082019050610672600083018461064e565b92915050565b60006106838261061c565b9050919050565b61069381610678565b811461069e57600080fd5b50565b6000813590506106b08161068a565b92915050565b6000602082840312156106cc576106cb6105b4565b5b60006106da848285016106a1565b91505092915050565b6106ec816105b9565b82525050565b600060208201905061070760008301846106e3565b92915050565b600082825260208201905092915050565b7f506c6561736520656e74657220612076616c69642062657420616d6f756e742e600082015250565b600061075460208361070d565b915061075f8261071e565b602082019050919050565b6000602082019050818103600083015261078381610747565b9050919050565b7f4e487b7100000000000000000000000000000000000000000000000000000000600052601160045260246000fd5b60006107c4826105b9565b91506107cf836105b9565b92508282019050808211156107e7576107e661078a565b5b92915050565b7f4e487b7100000000000000000000000000000000000000000000000000000000600052601260045260246000fd5b6000610827826105b9565b9150610832836105b9565b925082610842576108416107ed565b5b828206905092915050565b6000610858826105b9565b9150610863836105b9565b925082820390508181111561087b5761087a61078a565b5b92915050565b7f506c6561736520656e74657220612076616c6964207769746864726177616c2060008201527f616d6f756e742e00000000000000000000000000000000000000000000000000602082015250565b60006108dd60278361070d565b91506108e882610881565b604082019050919050565b6000602082019050818103600083015261090c816108d0565b9050919050565b600081905092915050565b50565b600061092e600083610913565b91506109398261091e565b600082019050919050565b600061094f82610921565b9150819050919050565b7f4661696c656420746f207769746864726177206d6f6e65792066726f6d20636f60008201527f6e74726163742e00000000000000000000000000000000000000000000000000602082015250565b60006109b560278361070d565b91506109c082610959565b604082019050919050565b600060208201905081810360008301526109e4816109a8565b9050919050565b7f596f75206172656e277420746865206f776e6572000000000000000000000000600082015250565b6000610a2160148361070d565b9150610a2c826109eb565b602082019050919050565b60006020820190508181036000830152610a5081610a14565b905091905056fea2646970667358221220ba76c905f7cb2a081f7b7208976d0ace4072da3cae13f2da75d2312774f63af464736f6c63430008110033",
  "linkReferences": {},
  "deployedLinkReferences": {}
}